{
  "_format": "hh3-artifact-1",
  "contractName": "HashRegistry",
  "sourceName": "contracts/HashRegistry.sol",
  "abi": [
    {
      "anonymous": false,
      "inputs": [
        {
          "indexed": false,
          "internalType": "bytes32",
          "name": "hash",
          "type": "bytes32"
        },
        {
          "indexed": false,
          "internalType": "address",
          "name": "owner",
          "type": "address"
        },
        {
          "indexed": false,
          "internalType": "uint256",
          "name": "timestamp",
          "type": "uint256"
        }
      ],
      "name": "HashRegistrado",
      "type": "event"
    },
    {
      "inputs": [],
      "name": "getAllHashes",
      "outputs": [
        {
          "internalType": "bytes32[]",
          "name": "",
          "type": "bytes32[]"
        }
      ],
      "stateMutability": "view",
      "type": "function"
    },
    {
      "inputs": [
        {
          "internalType": "uint256",
          "name": "index",
          "type": "uint256"
        }
      ],
      "name": "getHashByIndex",
      "outputs": [
        {
          "internalType": "bytes32",
          "name": "",
          "type": "bytes32"
        }
      ],
      "stateMutability": "view",
      "type": "function"
    },
    {
      "inputs": [
        {
          "internalType": "bytes32",
          "name": "hash",
          "type": "bytes32"
        }
      ],
      "name": "getHashDetails",
      "outputs": [
        {
          "internalType": "bool",
          "name": "exists",
          "type": "bool"
        },
        {
          "internalType": "uint256",
          "name": "timestamp",
          "type": "uint256"
        },
        {
          "internalType": "address",
          "name": "owner",
          "type": "address"
        }
      ],
      "stateMutability": "view",
      "type": "function"
    },
    {
      "inputs": [],
      "name": "getTotalHashes",
      "outputs": [
        {
          "internalType": "uint256",
          "name": "",
          "type": "uint256"
        }
      ],
      "stateMutability": "view",
      "type": "function"
    },
    {
      "inputs": [
        {
          "internalType": "uint256",
          "name": "",
          "type": "uint256"
        }
      ],
      "name": "hashList",
      "outputs": [
        {
          "internalType": "bytes32",
          "name": "",
          "type": "bytes32"
        }
      ],
      "stateMutability": "view",
      "type": "function"
    },
    {
      "inputs": [
        {
          "internalType": "bytes32",
          "name": "",
          "type": "bytes32"
        }
      ],
      "name": "hashOwners",
      "outputs": [
        {
          "internalType": "address",
          "name": "",
          "type": "address"
        }
      ],
      "stateMutability": "view",
      "type": "function"
    },
    {
      "inputs": [
        {
          "internalType": "bytes32",
          "name": "",
          "type": "bytes32"
        }
      ],
      "name": "hashTimestamps",
      "outputs": [
        {
          "internalType": "uint256",
          "name": "",
          "type": "uint256"
        }
      ],
      "stateMutability": "view",
      "type": "function"
    },
    {
      "inputs": [
        {
          "internalType": "bytes32",
          "name": "",
          "type": "bytes32"
        }
      ],
      "name": "hashes",
      "outputs": [
        {
          "internalType": "bool",
          "name": "",
          "type": "bool"
        }
      ],
      "stateMutability": "view",
      "type": "function"
    },
    {
      "inputs": [
        {
          "internalType": "bytes32",
          "name": "hash",
          "type": "bytes32"
        }
      ],
      "name": "registrarHash",
      "outputs": [],
      "stateMutability": "nonpayable",
      "type": "function"
    },
    {
      "inputs": [
        {
          "internalType": "bytes32",
          "name": "hash",
          "type": "bytes32"
        }
      ],
      "name": "verificarHash",
      "outputs": [
        {
          "internalType": "bool",
          "name": "",
          "type": "bool"
        }
      ],
      "stateMutability": "view",
      "type": "function"
    }
  ],
  "bytecode": "0x6080604052348015600e575f5ffd5b506104ba8061001c5f395ff3fe608060405234801561000f575f5ffd5b506004361061009b575f3560e01c8063d658d2e911610063578063d658d2e914610168578063dcfbc4311461019a578063ec058186146101bc578063f76c9394146101cf578063fe99f7421461020f575f5ffd5b80631758c77a1461009f5780632c8d41fd1461010b5780633670430b1461012c5780637eb41ee81461014b578063a4458dc414610160575b5f5ffd5b6100e06100ad366004610417565b5f90815260208181526040808320546002835281842054600390935292205460ff9092169290916001600160a01b031690565b60408051931515845260208401929092526001600160a01b0316908201526060015b60405180910390f35b61011e610119366004610417565b610224565b604051908152602001610102565b61011e61013a366004610417565b60026020525f908152604090205481565b61015e610159366004610417565b610243565b005b60015461011e565b61018a610176366004610417565b5f6020819052908152604090205460ff1681565b6040519015158152602001610102565b61018a6101a8366004610417565b5f9081526020819052604090205460ff1690565b61011e6101ca366004610417565b610355565b6101f76101dd366004610417565b60036020525f90815260409020546001600160a01b031681565b6040516001600160a01b039091168152602001610102565b6102176103c1565b604051610102919061042e565b60018181548110610233575f80fd5b5f91825260209091200154905081565b5f8181526020819052604090205460ff16156102a65760405162461bcd60e51b815260206004820152601860248201527f4861736820616c7265616479207265676973746572656421000000000000000060448201526064015b60405180910390fd5b5f81815260208181526040808320805460ff1916600190811790915580548082019091557fb10e2d527612073b26eecdfd717e6a320cf44b4afac2b0732d9fcbe2b7fa0cf601849055600282528083204290819055600383529281902080546001600160a01b031916339081179091558151858152928301528101919091527f9f874d9673e1cbf2f13c1b5ad2e8dad7f871a3c62723c97a7eb230e757230e629060600160405180910390a150565b6001545f90821061039e5760405162461bcd60e51b8152602060048201526013602482015272496e646578206f7574206f6620626f756e647360681b604482015260640161029d565b600182815481106103b1576103b1610470565b905f5260205f2001549050919050565b6060600180548060200260200160405190810160405280929190818152602001828054801561040d57602002820191905f5260205f20905b8154815260200190600101908083116103f9575b5050505050905090565b5f60208284031215610427575f5ffd5b5035919050565b602080825282518282018190525f918401906040840190835b81811015610465578351835260209384019390920191600101610447565b509095945050505050565b634e487b7160e01b5f52603260045260245ffdfea264697066735822122000845bfc31cf142986c5b0f19a164e030ceef8c6776826c552438bd094b47dfe64736f6c634300081c0033",
  "linkReferences": {},
  "deployedLinkReferences": {},
  "immutableReferences": {},
  "inputSourceName": "project/contracts/HashRegistry.sol",
  "buildInfoId": "solc-0_8_28-33c1e6e1d05888c3691a8d7a270497ad8be6efe2"
}